{
    "contractName": "Faucet",
    "abi": [
        {
            "inputs": [
                {
                    "internalType": "uint256",
                    "name": "withdraw_amount",
                    "type": "uint256"
                }
            ],
            "name": "withdraw",
            "outputs": [],
            "stateMutability": "nonpayable",
            "type": "function"
        },
        {
            "stateMutability": "payable",
            "type": "receive"
        }
    ],
    "bytecode": "608060405234801561001057600080fd5b5060cc8061001f6000396000f3fe608060405260043610601f5760003560e01c80632e1a7d4d14602a576025565b36602557005b600080fd5b348015603557600080fd5b50605060048036036020811015604a57600080fd5b50356052565b005b67016345785d8a0000811115606657600080fd5b604051339082156108fc029083906000818181858888f193505050501580156092573d6000803e3d6000fd5b505056fea264697066735822122035ad3d42aa1b8ef3c255df564d6218715a773f10fa12c68a77c294b1bfe3979c64736f6c63430007050033",
    "sourcePath": "/Users/staff018/practice/practice-mastering-ethereum/solidity/faucet.sol",
    "compiler": {
        "name": "solc",
        "version": "0.7.5+commit.eb77ed08"
    },
    "functionHashes": {
        "withdraw(uint256)": "2e1a7d4d"
    },
    "gasEstimates": {
        "creation": {
            "codeDepositCost": "40800",
            "executionCost": "93",
            "totalCost": "40893"
        },
        "external": {
            "withdraw(uint256)": "infinite"
        }
    }
}